:020000040000FA
:1000000040120020D5000000EF000000C5020000F3
:1000100000000000000000000000000000000000E0
:10002000000000000000000000000000F3000000DD
:100030000000000000000000F5000000FF0C0000C0
:100040002D030000350300003D03000049030000BC
:100050007D02000031110000511100005D1100000F
:10006000050300000D030000EF0C0000F70C00007A
:10007000E1020000E9020000191100002111000056
:1000800029110000F902000039110000411100009F
:10009000491100001D0300007D110000E70C000065
:1000A0008F0100002503000069110000711100009C
:1000B00015030000F1020000850200007502000037
:1000C0000348854600F044F80048004781010000DD
:1000D0004012002009480A4A002100A1814200D9AB
:1000E0000244084802600848804708480047FEE785
:1000F000FEE7FEE7FEE7FEE7FEE700000000002067
:100100000000000008ED00E091100000C1000000B8
:1001100070B50446002903D000202022012310E0FE
:10012000002801D00020C043C046C0460DE025464F
:10013000D5408D4205D30D469540641B1D46954024
:1001400040191546521E002DF1DC214670BD0000FD
:100150001CB5094800900948019005460126009CFD
:1001600005E0E36807CC33430C3C98471034AC42BD
:10017000F7D3FFF7A9FF0000441300006413000049
:1001800080B500F085FF01F049F8002080BD80B502
:10019000C046C046C046C04680BD10B500242046BB
:1001A00000F0C0FE204600F0CDFE10BDBFB500251A
:1001B000284600F02FFF0324204600F057FF20467A
:1001C00000F032FF01242046214600F0A9FD062060
:1001D00003900295042501950094684600F0C2FE44
:1001E000204600F055F82846214600F099FD2846A3
:1001F00000F024FFFFF7D1FFBFBD0000F0B585B0D0
:1002000000F0B4F8154F00260096019602971448A6
:1002100000680121134D0A2304932A46124CA0477B
:1002200000F0E2F838460C300096019602900F4834
:1002300000682A4628320221049B0B4CA04718373D
:100240000096019602970A480068503503212A4615
:10025000049B054CA04705B0F0BDC046201300002C
:100260005412000008000020F50500005C12000098
:100270005812000080B5C046C04680BD80B5C0465B
:10028000C04680BD80B5C046C046C046C04680BDA1
:1002900009490A4ACA600A4ACA600A680C239A4392
:1002A00083071B0FD2180A6009680907890F401AD3
:1002B000411E88417047C046200002405A5A000043
:1002C000A5A50000E0B50021019103A000F068FFA2
:1002D00001980028FCD08CBD6861726400000000A9
:1002E00080B5C046C04680BD80B5C046C04680BD12
:1002F00080B5C046C04680BD80B5C046C046C04639
:10030000C04680BD80B5C046C04680BD80B5C046F1
:10031000C04680BD80B5C046C04680BD80B5C046E1
:10032000C04680BD80B5C046C04680BD80B5C046D1
:10033000C04680BD80B5C046C04680BD80B5C046C1
:10034000C046C046C04680BD80B5C046C046C04617
:10035000C04680BD80B50988052905D101464431D4
:1003600000F066FF022080BD002080BD10B5064C65
:100370000649204600F08AFA204624300522002350
:10038000214600F029FC10BD8400002091030000EC
:10039000B0B50D46044600F083F9002D0ED0288834
:1003A00004280BD100F08AF96968204624300A46F7
:1003B00000F0E0FB0448A0600820B0BD4B208100A5
:1003C000024800F08EFCC04674120000F0120000DB
:1003D00080B50988052905D10146443100F029FF7F
:1003E000022080BD002080BD10B5064C0649204685
:1003F00000F04CFA2046243005220023214600F06C
:10040000EBFB10BD140100200D040000B0B50D463B
:10041000044600F045F9002D0ED0288804280BD1A1
:1004200000F04CF96968204624300A4600F0A2FB2F
:100430000448A0600820B0BD4B208100024800F0B5
:1004400050FCC04690120000FE120000B0B50546F8
:1004500000F026F96C69002C1FD0E87F411CE97779
:10046000287FC9B2814208D900226A61401C8842B3
:100470000FD0CD204100323115E0AA69A97F8B0051
:10048000D258002A0CD06A61002900D00846401ECC
:10049000A87700F013F92046B0BDCD20410002E05E
:1004A000CD20410028312D4800F01BFC70B51446CA
:1004B0000E46054600F0F4F8002E45D0E87F2649A8
:1004C0008C4205D1002808D12448E62100F009FC1F
:1004D000E1B2814201D3002400E00124B078002879
:1004E00005D0F078402833D2F078401CF070002C12
:1004F00017D0E87F401EE8772021695CC2B29142A4
:1005000002D9294620310870686900280FD0A969EE
:10051000687F82008E50002800D1287F401E6877B7
:100520000EE000F0CBF8304600F0D6F80AE06E613D
:10053000287B401E01218140D24802680A430260A4
:1005400000F0BCF8204670BD0448C82100F0C9FB8B
:100550000248F02100F0C5FBFFFF0000C0120000C0
:10056000F8B5044600F09CF8607B217B002801D19F
:10057000617308464A1ED2B2202A2CD28A00C24B8E
:100580009D58002D2BD181422DD89A180092151F0D
:100590000E46761E06D02A1F2F68002F1546F8D06B
:1005A0007D7B00E00546491CCEB2202E05D8B20066
:1005B0009E58002EF7D0717B00E00146854206D898
:1005C000884204D80098046000F078F8F8BD084824
:1005D000A02100F086FB0648642100F082FB04485D
:1005E0006E2100F07EFB0248822100F07AFBC046BB
:1005F000D6120000F8B51E4617460D46044600F018
:100600004FF82068002819D00698002819D10898BA
:10061000009000F053F80020607325732046FFF728
:100620009FFF204614303946324600F013F8227BF3
:1006300020680368204600999847F8BD4B20810048
:1006400002E04B2081000A31014800F04AFBC0461D
:10065000ED12000070B515460E46044600F020F875
:10066000FF2D0ED22572666000202060002D01D083
:100670006072A072681CE072E07A207300F01EF8CD
:1006800070BD0248642100F02CFBC046DE12000061
:10069000002904D000220270491E401CF8E7704770
:1006A000EFF3108072B6002800D1704701486E2128
:1006B000014A104798120000E30C0000EFF310808D
:1006C000002801D062B6704701486F21014A1047E7
:1006D00098120000E30C0000B0B50446FFF7E0FFFD
:1006E000002C1DD0A078002805D0E178022905D380
:1006F000E078401EE070FFF7E1FFB0BD1849CA6B1B
:10070000042A10D2824212D3142242435518FFF712
:10071000D5FF143D00222846214600F0C7F8B0BDA1
:100720007D20810006E07D2081001E3102E07D20D9
:1007300081002831014800F0D4FAC046C8120000F8
:1007400010B507484021074CA0474E480821A04754
:100750004D488421A04700F061FA00F0BDFA10BDB9
:10076000E001002091060000EFF3108072B600282F
:1007700000D1704701486421014A104798120000D7
:10078000E30C0000EFF31080002801D062B6704740
:1007900001486521014A104798120000E30C00004F
:1007A00080B500F06FFC0A4800680A49FFF7B0FC0A
:1007B00009494860FF200006084A13688343032064
:1007C000800718181060002088600720086080BD2E
:1007D00000000020C409000010E000E020ED00E06F
:1007E0000021020C01D010211000020A01D00831B2
:1007F0001000020901D0091D1046064A105C0818B5
:100800007047C0460001020203030303040404040A
:100810000404040404080000FFF7A6FFFFF7B2FF7A
:10082000FFF7BEFFFFF7A0FF164F3868002823D060
:10083000FFF7D6FF0446387984421DD9A00012493B
:100840000D58FFF79FFF2846FFF700FE0646286871
:10085000436828463146224698473046FFF73CFF1A
:10086000FFF782FF68690028DFD1601E0121814007
:10087000386888433860D8E700F02FFAFFF774FF34
:10088000D3E7C046380200205C010020B0B50C461A
:1008900005462421FFF7FCFE2846214600F038F8E3
:1008A00001482860B0BDC046A0120000B0B50D469A
:1008B0000446FFF7F5FE002D1BD02068A84214D88F
:1008C0006068854211D803CD4140083D481C13D0D3
:1008D000A168208AE289904212D2A560CA4306C567
:1008E000401C2082FFF7EAFEB0BD192001010A3149
:1008F00009E01920010106E019200101163102E08A
:10090000192001013231014800F0EBF9CF1200004B
:100910008B4A024B0360426081607047AC1200005A
:10092000F0B589B00D46476881687940491C7FD190
:100930000290002D00D180E006200090C44326469E
:100940000197761C66D27A6802982946904701285A
:1009500003D83F68002FF4D156E0072854D3092864
:100960000DD0072842D1029EB568304601993A461B
:1009700000F08EF83046294600F068F836E002981C
:1009800046680199416085683A46074600F080F85C
:100990003846294600F05AF8A51D78682146019688
:1009A000324682420FD09368002B05D0052D39DAEC
:1009B0006D1CAB0003AEF250491C1268F1D3FFF777
:1009C0006FFE21493DE0AE00002D07D403A88059F9
:1009D000816838468847361F6D1EF5E701987860B4
:1009E00001690029009801D03846884708280BD1B2
:1009F0000298816800F02AF8641CF7D3FFF750FED4
:100A00004B2081003C310AE002994868C04388606D
:100A100009B0F0BDFFF744FE4B2081002831544857
:100A200000F05FF9FFF73CFE5148074900F059F923
:100A3000FFF736FE4B208100F1E7FFF731FE4B2038
:100A400081000A31EBE7C0466202000070B5002960
:100A500019D00D46044606200426A95900290CD0B9
:100A600020468847361D382EF7D1FFF719FE19208A
:100A7000010150313E4800F034F9072800D3A56841
:100A80002968616070BDFFF70BFE19200101F1E7D5
:100A9000F8B514460D4606460620C743A5420ED0BB
:100AA000E968002901D0304688477F1C2D68F5D3BE
:100AB000FFF7F6FD912081002D4800F012F9F8BDF6
:100AC000B0B58268002A22D0044640681C4B984288
:100AD00023D120469047082825D1A068002828D097
:100AE000006860600620C5436D1C09D2A1682046DD
:100AF000FFF7ACFF0728F7D86068C043A060B0BD1F
:100B0000FFF7CEFD2320C100194800F0EAF8FFF7F7
:100B1000C7FD1748C82100F0E4F8FFF7C1FD1448ED
:100B2000D22100F0DEF8FFF7BBFD1148F02100F004
:100B3000D8F8FFF7B5FD0E48FA2100F0D2F8C0460C
:100B40000C13000080B50622D243001D0068002867
:100B50000BD043688B4208D0521CF7D3FFF7A0FD9F
:100B6000B9208100024800F0BCF8411E884180BDD8
:100B7000B812000070B516460D460446FFF790FD0A
:100B8000207DE168002D16D0002917D1A168002929
:100B900018D000281AD12661E560152020560028BB
:100BA00006D480210843607549488168846061608B
:100BB000FFF784FD70BD3720C1000AE03720C10077
:100BC0000A3106E03720C100143102E03720C100AD
:100BD0001E313E4800F085F8F8B51F4616460D4612
:100BE0000446FFF75DFD002E0FD0002F10D1FFF758
:100BF00065FDE020E07000206060E060A07026806D
:100C0000A560A0822061E070F8BD4B20810002E069
:100C10004B2081000A312D4800F063F880B52C4844
:100C2000042200210B46FFF7D7FF80BDF8B504462C
:100C3000FFF736FD002C45D13F20C743244E3446F4
:100C40006568002D05D1B568002D38D00020B06052
:100C50006560E86801280AD000280FD168686060E4
:100C6000687D7F2101406975FFF728FD1DE0286937
:100C7000AE68002808D0E8602C460DE0401EE86011
:100C8000FFF71CFD2C4610E00020E86068686060FB
:100C9000687D7F2101406975FFF710FD0023304614
:100CA00029460C4AFFF702FC094EFFF7F9FC7F1CAE
:100CB000C6D3192041015A31044800F012F8FFF759
:100CC000FDFCF8BD19204101F6E7C046E512000021
:100CD00020020020FFFF0000704780B5FFF752FDA3
:100CE00080BD00F04FFA80B5C046C04680BD80B5DB
:100CF000C046C04680BD80B5C046C04680BD80B5F8
:100D000000F002F880BD000080B500200146FFF72A
:100D10008DFF02480168491C016080BD80000020F1
:100D200070B50C46CE4DCF49A960CF49A9602E6A57
:100D3000042800D97AE0C04678440079400087440E
:100D400002582D3D1100601E214681412868012274
:100D50009043401828600020002C68D0E9680905FD
:100D6000FCD564E0012001042A6A0A432A62314961
:100D70000A6802430A60142000F014FA601E21463B
:100D80008141080129681022914308182860002039
:100D9000002C4CD0E96B4903FCD548E0601E21468D
:100DA00081418800296804229143081828600020A6
:100DB000002C3CD06969C904FCD538E0012000074B
:100DC000296A01432962032080031B490A68024300
:100DD0000A60601E21468141C800296808229143AB
:100DE000081828600020002C21D0A9694906FCD5EC
:100DF0001DE001200007296A014329620F480168AC
:100E000003220A430260601E21468141480029688E
:100E10000222914308182860002C02D0286940065D
:100E2000FCD50A2000F0DAF9002000E004202E6250
:100E300070BDC046002400408C0D02404C1D024095
:100E4000FCB571480688458881880191C488078C63
:100E5000A94A11460C3908680006430F042B23D811
:100E600000946A487B441B795B009F44024E151A2C
:100E700009001368A24F3B40B3421AD1254844E011
:100E8000136B03241C40032C3AD113689C4F3B4046
:100E9000B34214D11F4B34E09068964A0240BA42E4
:100EA00004D00120C00330E000202EE04B2040029F
:100EB0002BE013683B40AB4207D1174825E013688D
:100EC0003B40AB4208D1144B1BE013683B40019CF4
:100ED000A34208D1114818E013683B40019CA3428B
:100EE00008D10E4B0DE012683A40009B9A420CD09C
:100EF0000B480AE013683B40009CA34200D008481E
:100F00000346106BC005000F584309684905490F97
:100F1000C840FCBD00366E01408651010024F4003B
:100F200000093D004E494F4A8A604F4A8A600722B5
:100F300012020B6893434007400D18180860002008
:100F40007047C0464649474A8A60474A8A6003223A
:100F5000D2020B6893438007C00C18180860002069
:100F60007047C046F0B528490E884D888C88C988DE
:100F70008268032A40D1604A1768614B1F40B7421C
:100F800002D1C668022E3DD816681E40AE4202D17C
:100F9000C568022D36D815681D40A54202D1C46827
:100FA000032C2FD812681A408A4202D1C168062940
:100FB00028D8036803214C034F4A156BA5439B07B0
:100FC0005B0CEB1813634368146B1C25AC435B0785
:100FD000DB0EE3181363C3680F246401156BA5438C
:100FE0001B07DB0DEB18136380680840136B8B4302
:100FF000181810630020F0BDC168044A4A43044930
:101000008A42D6D90620F0BD000C100000127A00EA
:10101000006CDC021A490A680C239A438007000F0F
:10102000101808600020704715490A6830239A4359
:101030008007800E101808600020704780B50849AE
:10104000084A8A60084A8A600A68E0239A43400195
:10105000C0B21018086000F015F8002080BDC0462E
:10106000002000405A5A0000A5A5000003210840B6
:10107000034A13688B431818106000207047C0465D
:101080001020004080B5FFF7DBFE6249086080BD9C
:1010900010B51748418B174A0A40174CA168174BE7
:1010A0000B409918A1600088154901402068154A35
:1010B000024050182060FFF7E5FF134813494160D4
:1010C00000218160052101606069012109076269D1
:1010D0000A4362610E49CA680E4B1340CB600A682E
:1010E000B0231A430A600A6A1A430A62606110BD9B
:1010F000080C1000FF0300000C20004000FCFFFF64
:10110000FF07000000F8FFFF10E000E0FFFFFF0016
:10111000401D02404FFF000080B5C046C04680BD64
:1011200080B5C046C04680BD80B5C046C04680BDC3
:1011300080B5C046C04680BD80B5C046C04680BDB3
:1011400080B5C046C04680BD80B5C046C04680BDA3
:1011500080B5C046C046C046C04680BD80B5C046CA
:10116000C046C046C04680BD80B5C046C04680BDB2
:1011700080B5C046C046C046C04680BD80B5C046AA
:10118000C04680BDBFF34F8F034804490160BFF3E1
:101190004F8F00BFFDE7C0460CED00E00400FA05EC
:1011A000FFF7F0FF70B504461B4D2E681948006824
:1011B0000949FEF7ADFF6043002132462E68B24276
:1011C000FCD001D9921B03E0921B2B1F1B68D21885
:1011D00051188142F1D370BDA0860100B0B504461C
:1011E0000C4800687D21C900FEF792FF60430A4960
:1011F0000B6800221C460B689C42FCD001D9E41A03
:1012000003E0E41A0D1F2D686419A2188242F1D37D
:10121000B0BDC0460000002018E000E080B5FFF738
:101220008FFAFEF7C3FFFEF7E9FFFFF7F5FA80BD7F
:101230007047704702E008C8121F08C1002AFAD19F
:1012400070477047002001E001C1121F002AFBD146
:101250007047000084000020CC0000201401002012
:101260000000000055030000000000000000000026
:1012700000000000601200000000000000000000FC
:10128000D10300000000000000000000000000008A
:101290007C1200000000000071765F706F727400B5
:1012A000C10A000021090000450B0000C10A00002E
:1012B00021090000450B00007165705F6D736D00C2
:1012C00071665F616374710071665F64796E00714D
:1012D000665F6D656D0071665F7161637400716654
:1012E0005F7165710071665F74696D65007176008C
:1012F000706572696F6469635F68696768007065CB
:1013000072696F6469635F6D6964000000000000CA
:1013100000000000000000000000000000000000CD
:10132000040000E00100000000000000040000E0F4
:101330000100000000000000040000E001000000C7
:1013400000000000681300000000002008000000FA
:101350003412000070130000080000203812000052
:101360004412000000000000003E490000000000A0
:04000005000000C136
:00000001FF
