:020000040000FA
:1000000050110020D5000000EF000000E5010000C5
:1000100000000000000000000000000000000000E0
:10002000000000000000000000000000F3000000DD
:100030000000000000000000F50000008F0B000031
:100040004102000049020000510200005D02000070
:10005000D1010000510D0000710D00007D0D000068
:1000600019020000210200007F0B0000870B000036
:10007000F5010000FD010000390D0000410D0000F8
:10008000490D00000D020000590D0000610D000037
:10009000690D0000310200009D0D0000770B00008B
:1000A0008F01000039020000890D0000910D000051
:1000B0002902000005020000D9010000C90100006A
:1000C0000348854600F044F80048004781010000DD
:1000D0005011002009480A4A002100A1814200D99C
:1000E0000244084802600848804708480047FEE785
:1000F000FEE7FEE7FEE7FEE7FEE700000000002067
:100100000000000008ED00E0C50C0000C100000088
:1001100070B50446002903D000202022012310E0FE
:10012000002801D00020C043C046C0460DE025464F
:10013000D5408D4205D30D469540641B1D46954024
:1001400040191546521E002DF1DC214670BD0000FD
:100150001CB5094800900948019005460126009CFD
:1001600005E0E36807CC33430C3C98471034AC42BD
:10017000F7D3FFF7A9FF00009C0E0000BC0E0000A3
:1001800080B500F09FFD00F01BFE002080BD80B513
:10019000C046C046C046C04680BD7047F8B500F0B6
:1001A00069F8064800210091019102900448006816
:1001B0000121044A0A2300F063F98FBD900E00006C
:1001C000F40D00000800002080B5C046C04680BD88
:1001D00080B5C046C04680BD80B5C046C046C0465A
:1001E000C04680BD81B00020009000980028FCD05F
:1001F00001B0704780B5C046C04680BD80B5C046DE
:10020000C04680BD80B5C046C04680BD80B5C046F2
:10021000C046C046C04680BD80B5C046C04680BD11
:1002200080B5C046C04680BD80B5C046C04680BDD2
:1002300080B5C046C04680BD80B5C046C04680BDC2
:1002400080B5C046C04680BD80B5C046C04680BDB2
:1002500080B5C046C046C046C04680BD80B5C046D9
:10026000C046C046C04680BD0888401F414241414B
:100270004800704710B5064C0649204600F04EFA7B
:100280002046243005220023214600F0EDFB10BD5E
:100290003000002099020000B0B50D46044600F081
:1002A00045F9002D0ED0288804280BD100F04CF918
:1002B0002979204624300A4600F0A4FB0448A060B7
:1002C0000820B0BD4B208100024800F052FCC0461F
:1002D0000C0E00006C0E0000B0B5054600F026F9CB
:1002E0006C69002C1FD0E87F411CE977287FC9B2D8
:1002F000814208D900226A61401C88420FD0CD207B
:100300004100323115E0AA69A97F8B00D258002A3A
:100310000CD06A61002900D00846401EA87700F082
:1003200013F92046B0BDCD20410002E0CD204100B0
:1003300028312D4800F01DFC70B514460E460546C8
:1003400000F0F4F8002E45D0E87F26498C4205D114
:10035000002808D12448E62100F00BFCE1B28142DC
:1003600001D3002400E00124B078002805D0F07803
:10037000402833D2F078401CF070002C17D0E87F72
:10038000401EE8772021695CC2B2914202D9294619
:1003900020310870686900280FD0A969687F820041
:1003A0008E50002800D1287F401E68770EE000F0B4
:1003B000CBF8304600F0D6F80AE06E61287B401E8C
:1003C00001218140D34802680A43026000F0BCF872
:1003D000204670BD0448C82100F0CBFB0248F02144
:1003E00000F0C7FBFFFF00003C0E0000F8B504461C
:1003F00000F09CF8607B217B002801D161730846E6
:100400004A1ED2B2202A2CD28A00C34B9D58002DFE
:100410002BD181422DD89A180092151F0E46761EB8
:1004200006D02A1F2F68002F1546F8D07D7B00E0EC
:100430000546491CCEB2202E05D8B2009E58002E8B
:10044000F7D0717B00E00146854206D8884204D887
:100450000098046000F078F8F8BD0848A02100F08A
:1004600088FB0648642100F084FB04486E2100F0FC
:1004700080FB0248822100F07CFBC046520E000047
:10048000F8B51E4617460D46044600F04FF82068A2
:10049000002819D00698002819D10898009000F07B
:1004A00053F80020607325732046FFF79FFF204616
:1004B00014303946324600F013F8227B2068036876
:1004C000204600999847F8BD4B20810002E04B2060
:1004D00081000A31014800F04CFBC046690E000063
:1004E00070B515460E46044600F020F8FF2D0ED2DA
:1004F0002572666000202060002D01D06072A0721D
:10050000681CE072E07A207300F01EF870BD0248AB
:10051000642100F02EFBC0465A0E0000002904D0D2
:1005200000220270491E401CF8E77047EFF310806C
:1005300072B6002800D1704701486E21014A104769
:10054000140E0000730B0000EFF31080002801D0A0
:1005500062B6704701486F21014A1047140E00002F
:10056000730B0000B0B50446FFF7E0FF002C1DD070
:10057000A078002805D0E178022905D3E078401E54
:10058000E070FFF7E1FFB0BD1849CA6B042A10D232
:10059000824212D3142242435518FFF7D5FF143D6F
:1005A00000222846214600F0C9F8B0BD7D20810018
:1005B00006E07D2081001E3102E07D20810028318F
:1005C000014800F0D6FAC046440E000010B50748B6
:1005D0004021074CA0474F480821A0474E4884219E
:1005E000A04700F063FA00F0BFFA10BDF000002051
:1005F0001D050000EFF3108072B6002800D170478F
:1006000001486421014A1047140E0000730B0000DA
:10061000EFF31080002801D062B6704701486521D1
:10062000014A1047140E0000730B000010B50B4870
:1006300000680B49FFF76CFD0A4948600A480268E8
:100640000A4B1A400324A4071219026000228A6090
:1006500007220A6001681940016010BD00000020F7
:10066000C409000010E000E020ED00E0FFFFFF0003
:100670000021020C01D010211000020A01D0083123
:100680001000020901D0091D1046064A105C081826
:100690007047C0460001020203030303040404047C
:1006A0000404040494060000FFF7A4FFFFF7B0FF62
:1006B000FFF7BCFFFFF79EFF164F3868002823D0D6
:1006C000FFF7D6FF0446387984421DD9A0001249AD
:1006D0000D58FFF79DFF2846FFF7FEFD06462868E8
:1006E000436828463146224698473046FFF73AFF8E
:1006F000FFF780FF68690028DFD1601E012181407B
:10070000386888433860D8E700F02FFAFFF772FFA7
:10071000D3E7C046480100206C000020B0B50C466D
:1007200005462421FFF7FAFE2846214600F038F856
:1007300001482860B0BDC0461C0E0000B0B50D4693
:100740000446FFF7F3FE002D1BD02068A84214D802
:100750006068854211D803CD4140083D481C13D044
:10076000A168208AE289904212D2A560CA4306C5D8
:10077000401C2082FFF7E8FEB0BD192001010A31BC
:1007800009E01920010106E019200101163102E0FB
:10079000192001013231014800F0EBF94B0E000045
:1007A0008B4A024B0360426081607047280E000054
:1007B000F0B589B00D46476881687940491C7FD102
:1007C0000290002D00D180E006200090C443264610
:1007D0000197761C66D27A680298294690470128CC
:1007E00003D83F68002FF4D156E0072854D30928D6
:1007F0000DD0072842D1029EB568304601993A468D
:1008000000F08EF83046294600F068F836E002988D
:1008100046680199416085683A46074600F080F8CD
:100820003846294600F05AF8A51D786821460196F9
:10083000324682420FD09368002B05D0052D39DA5D
:100840006D1CAB0003AEF250491C1268F1D3FFF7E8
:100850006DFE21493DE0AE00002D07D403A880596C
:10086000816838468847361F6D1EF5E70198786025
:1008700001690029009801D03846884708280BD123
:100880000298816800F02AF8641CF7D3FFF74EFE47
:100890004B2081003C310AE002994868C0438860DF
:1008A00009B0F0BDFFF742FE4B20810028315448CB
:1008B00000F05FF9FFF73AFE5148074900F059F997
:1008C000FFF734FE4B208100F1E7FFF72FFE4B20AE
:1008D00081000A31EBE7C0466202000070B50029D2
:1008E00019D00D46044606200426A95900290CD02B
:1008F00020468847361D382EF7D1FFF717FE1920FE
:10090000010150313E4800F034F9072800D3A568B2
:100910002968616070BDFFF709FE19200101F1E748
:10092000F8B514460D4606460620C743A5420ED02C
:10093000E968002901D0304688477F1C2D68F5D32F
:10094000FFF7F4FD912081002D4800F012F9F8BD69
:10095000B0B58268002A22D0044640681C4B9842F9
:1009600023D120469047082825D1A068002828D008
:10097000006860600620C5436D1C09D2A16820464E
:10098000FFF7ACFF0728F7D86068C043A060B0BD90
:10099000FFF7CCFD2320C100194800F0EAF8FFF76B
:1009A000C5FD1748C82100F0E4F8FFF7BFFD144863
:1009B000D22100F0DEF8FFF7B9FD1148F02100F078
:1009C000D8F8FFF7B3FD0E48FA2100F0D2F8C04680
:1009D0007C0E000080B50622D243001D006800286E
:1009E0000BD043688B4208D0521CF7D3FFF79EFD13
:1009F000B9208100024800F0BCF8411E884180BD4A
:100A0000340E000070B516460D460446FFF78EFD05
:100A1000207DE168002D16D0002917D1A16800299A
:100A200018D000281AD12661E5601520205600282C
:100A300006D48021084360754948816884606160FC
:100A4000FFF782FD70BD3720C1000AE03720C100EA
:100A50000A3106E03720C100143102E03720C1001E
:100A60001E313E4800F085F8F8B51F4616460D4683
:100A70000446FFF75BFD002E0FD0002F10D1FFF7CB
:100A800063FDE020E07000206060E060A0702680E0
:100A9000A560A0822061E070F8BD4B20810002E0DB
:100AA0004B2081000A312D4800F063F880B52C48B6
:100AB000042200210B46FFF7D7FF80BDF8B504469E
:100AC000FFF734FD002C45D13F20C743244E344668
:100AD0006568002D05D1B568002D38D00020B060C4
:100AE0006560E86801280AD000280FD16868606056
:100AF000687D7F2101406975FFF726FD1DE02869AB
:100B0000AE68002808D0E8602C460DE0401EE86082
:100B1000FFF71AFD2C4610E00020E860686860606E
:100B2000687D7F2101406975FFF70EFD0023304687
:100B300029460C4AFFF700FC094EFFF7F7FC7F1C23
:100B4000C6D3192041015A31044800F012F8FFF7CA
:100B5000FBFCF8BD19204101F6E7C046610E00001C
:100B600030010020FFFF0000704780B5FFF750FD07
:100B700080BD00F017F980B5C046C04680BD80B585
:100B8000C046C04680BD80B5C046C04680BD80B569
:100B900000F001F880BD80B500200146FFF78EFF10
:100BA00080BD0000FCB536480688458881880191E3
:100BB000C488078C5A4A11460C3908680006430F4E
:100BC000042B24D800942F487B441B795B009F445E
:100BD0000252161B0900136853480340B3421BD14D
:100BE000294848E0136B03241C40032C07463ED1E0
:100BF00013684D480340B34214D1234F37E0906847
:100C0000464A0240BA4204D00120C00333E000202B
:100C100031E04B2040022EE013680340AB4207D185
:100C20001A4828E013680340AB4208D1174F1EE072
:100C300013680340019CA34208D115481BE01368C8
:100C40000340019CA34208D1114F10E012680240FA
:100C50000098824208D010480DE0136803400098C5
:100C6000834203D00C4F02E00A4804E0094F106BA6
:100C7000C005000F784309684905490FC840FCBD0D
:100C8000000C10000048E80100366E01408651015A
:100C90000024F40000127A0000093D0080B5FFF73F
:100CA00081FF0549086005480549416000218160D0
:100CB0000521016080BDC0460000002010E000E07A
:100CC000FFFFFF0010B51448418B144A0A40144C32
:100CD000A168144B0B409918A1600088124901408B
:100CE0002068124A024050182060FFF7D7FF606961
:100CF0000121090762690A4362610D49CA680D4B07
:100D00001340CB600A68B0231A430A600A6A1A4388
:100D10000A62606110BDC046080C1000FF030000AD
:100D20000C20004000FCFFFFFF07000000F8FFFF61
:100D3000401D02404FFF000080B5C046C04680BD48
:100D400080B5C046C04680BD80B5C046C04680BDA7
:100D500080B5C046C04680BD80B5C046C04680BD97
:100D600080B5C046C04680BD80B5C046C04680BD87
:100D700080B5C046C046C046C04680BD80B5C046AE
:100D8000C046C046C04680BD80B5C046C04680BD96
:100D900080B5C046C046C046C04680BD80B5C0468E
:100DA000C04680BDBFF34F8F034804490160BFF3C5
:100DB0004F8F00BFFDE7C0460CED00E00400FA05D0
:100DC00080B5FFF703FCFFF7E8F9FFF7E7F9FFF756
:100DD0006BFC80BD02E008C8121F08C1002AFAD1CE
:100DE00070477047002001E001C1121F002AFBD1AB
:100DF0007047000030000020000000006902000081
:100E0000000000000000000000000000F80D0000DD
:100E10000000000071765F706F727400510900006D
:100E2000B1070000D509000051090000B10700001A
:100E3000D50900007165705F6D736D0071665F614B
:100E40006374710071665F64796E0071665F6D65D1
:100E50006D0071665F716163740071665F716571C9
:100E60000071665F74696D65007176007065726906
:100E70006F6469635F6869676800000000000000D4
:100E80000000000000000000000000000000000062
:100E9000040000E00100040000E00100C00E0000BA
:100EA0000000002008000000D40D0000C80E000063
:100EB0000800002048110000E40D000000000000C0
:080EC00000093D0000000000E4
:04000005000000C136
:00000001FF
