:020000040000FA
:1000000008100020D5000000EF000000770100007C
:1000100000000000000000000000000000000000E0
:10002000000000000000000000000000F3000000DD
:100030000000000000000000F500000013020000B6
:10004000D3010000DB010000E3010000EF0100002C
:1000500063010000C9030000E9030000F50300008C
:10006000AB010000B3010000030200000B0200001E
:10007000870100008F010000B1030000B9030000F8
:10008000C10300009F010000D1030000D90300005C
:10009000E1030000C301000015040000FB010000A3
:1000A0004F010000CB010000010400000904000022
:1000B000BB010000970100006B0100005B01000024
:1000C0000348854600F024F800480047410100003D
:1000D0000810002009480A4A002100A1814200D9E5
:1000E0000244084802600848804708480047FEE785
:1000F000FEE7FEE7FEE7FEE7FEE700000000002067
:100100000000000008ED00E03D030000C100000019
:100110001CB5094800900948019005460126009C3D
:1001200005E0E36807CC33430C3C98471034AC42FD
:10013000F7D3FFF7C9FF00003C0400005C04000097
:1001400080B500F0FBF800F069F9002080BD80B5B3
:10015000C046C046C046C04680BD80B5C046C04609
:1001600080BD80B5C046C04680BD80B5C046C04693
:10017000C046C04680BD81B0002000900098002895
:10018000FCD001B0704780B5C046C04680BD80B588
:10019000C046C04680BD80B5C046C04680BD80B563
:1001A000C046C046C046C04680BD80B5C046C046B9
:1001B00080BD80B5C046C04680BD80B5C046C04643
:1001C00080BD80B5C046C04680BD80B5C046C04633
:1001D00080BD80B5C046C04680BD80B5C046C04623
:1001E00080BD80B5C046C046C046C04680BD80B513
:1001F000C046C046C046C04680BD80B5C046C04669
:1002000080BD80B5C046C04680BD80B5C046C046F2
:1002100080BD80B5C046C04680BD0000FCB53648F4
:100220000688458881880191C488078C5A4A1146FE
:100230000C3908680006430F042B24D800942F487B
:100240007B441B795B009F440252161B0900136814
:1002500053480340B3421BD1294848E0136B0324A1
:100260001C40032C07463ED113684D480340B3425F
:1002700014D1234F37E09068464A0240BA4204D076
:100280000120C00333E0002031E04B2040022EE08B
:1002900013680340AB4207D11A4828E013680340B3
:1002A000AB4208D1174F1EE013680340019CA342E4
:1002B00008D115481BE013680340019CA34208D1F4
:1002C000114F10E0126802400098824208D0104896
:1002D0000DE0136803400098834203D00C4F02E006
:1002E0000A4804E0094F106BC005000F7843096805
:1002F0004905490FC840FCBD000C10000048E8014A
:1003000000366E01408651010024F40000127A008C
:1003100000093D0080B5FFF781FF054908600548E9
:1003200005494160002181600521016080BDC04612
:100330000000002010E000E0FFFFFF0010B51448AF
:10034000418B144A0A40144CA168144B0B40991875
:10035000A1600088124901402068124A02405018EA
:100360002060FFF7D7FF60690121090762690A432E
:1003700062610D49CA680D4B1340CB600A68B02317
:100380001A430A600A6A1A430A62606110BDC046D5
:10039000080C1000FF0300000C20004000FCFFFFD1
:1003A000FF07000000F8FFFF401D02404FFF000064
:1003B00080B5C046C04680BD80B5C046C04680BD41
:1003C00080B5C046C04680BD80B5C046C04680BD31
:1003D00080B5C046C04680BD80B5C046C04680BD21
:1003E00080B5C046C04680BD80B5C046C046C04648
:1003F000C04680BD80B5C046C046C046C04680BD30
:1004000080B5C046C04680BD80B5C046C046C04627
:10041000C04680BD80B5C046C04680BDFEE702E054
:1004200008C8121F08C1002AFAD17047704700207F
:1004300001E001C1121F002AFBD1704760040000D7
:1004400000000020080000001E04000068040000F6
:1004500008000020001000002E0400000000000032
:0804600000093D00000000004E
:04000005000000C136
:00000001FF
